{
  "_format": "hh-sol-artifact-1",
  "contractName": "NFTTrader",
  "sourceName": "contracts/NFTTrader.sol",
  "abi": [
    {
      "inputs": [],
      "stateMutability": "nonpayable",
      "type": "constructor"
    },
    {
      "inputs": [
        {
          "internalType": "address",
          "name": "_token",
          "type": "address"
        },
        {
          "internalType": "uint256",
          "name": "_tokenId",
          "type": "uint256"
        }
      ],
      "name": "acquireNFT",
      "outputs": [],
      "stateMutability": "nonpayable",
      "type": "function"
    },
    {
      "inputs": [
        {
          "internalType": "address",
          "name": "",
          "type": "address"
        },
        {
          "internalType": "address",
          "name": "",
          "type": "address"
        },
        {
          "internalType": "uint256",
          "name": "",
          "type": "uint256"
        },
        {
          "internalType": "bytes",
          "name": "",
          "type": "bytes"
        }
      ],
      "name": "onERC721Received",
      "outputs": [
        {
          "internalType": "bytes4",
          "name": "",
          "type": "bytes4"
        }
      ],
      "stateMutability": "nonpayable",
      "type": "function"
    },
    {
      "inputs": [
        {
          "internalType": "address",
          "name": "_buyer",
          "type": "address"
        },
        {
          "internalType": "address",
          "name": "_token",
          "type": "address"
        },
        {
          "internalType": "uint256",
          "name": "_tokenId",
          "type": "uint256"
        }
      ],
      "name": "sellNFT",
      "outputs": [],
      "stateMutability": "nonpayable",
      "type": "function"
    }
  ],
  "bytecode": "0x608060405234801561001057600080fd5b50610562806100206000396000f3fe608060405234801561001057600080fd5b50600436106100415760003560e01c8063150b7a02146100465780633e1b634b14610076578063d6e209cb14610092575b600080fd5b610060600480360381019061005b919061028a565b6100ae565b60405161006d91906103a5565b60405180910390f35b610090600480360381019061008b9190610305565b6100c2565b005b6100ac60048036038101906100a7919061023b565b610135565b005b600063150b7a0260e01b9050949350505050565b8173ffffffffffffffffffffffffffffffffffffffff166342842e0e3330846040518463ffffffff1660e01b81526004016100ff9392919061036e565b600060405180830381600087803b15801561011957600080fd5b505af115801561012d573d6000803e3d6000fd5b505050505050565b8173ffffffffffffffffffffffffffffffffffffffff166342842e0e3085846040518463ffffffff1660e01b81526004016101729392919061036e565b600060405180830381600087803b15801561018c57600080fd5b505af11580156101a0573d6000803e3d6000fd5b50505050505050565b60006101bc6101b7846103e5565b6103c0565b9050828152602081018484840111156101d457600080fd5b6101df84828561047e565b509392505050565b6000813590506101f6816104fe565b92915050565b600082601f83011261020d57600080fd5b813561021d8482602086016101a9565b91505092915050565b60008135905061023581610515565b92915050565b60008060006060848603121561025057600080fd5b600061025e868287016101e7565b935050602061026f868287016101e7565b925050604061028086828701610226565b9150509250925092565b600080600080608085870312156102a057600080fd5b60006102ae878288016101e7565b94505060206102bf878288016101e7565b93505060406102d087828801610226565b925050606085013567ffffffffffffffff8111156102ed57600080fd5b6102f9878288016101fc565b91505092959194509250565b6000806040838503121561031857600080fd5b6000610326858286016101e7565b925050602061033785828601610226565b9150509250929050565b61034a81610416565b82525050565b61035981610428565b82525050565b61036881610474565b82525050565b60006060820190506103836000830186610341565b6103906020830185610341565b61039d604083018461035f565b949350505050565b60006020820190506103ba6000830184610350565b92915050565b60006103ca6103db565b90506103d6828261048d565b919050565b6000604051905090565b600067ffffffffffffffff821115610400576103ff6104be565b5b610409826104ed565b9050602081019050919050565b600061042182610454565b9050919050565b60007fffffffff0000000000000000000000000000000000000000000000000000000082169050919050565b600073ffffffffffffffffffffffffffffffffffffffff82169050919050565b6000819050919050565b82818337600083830152505050565b610496826104ed565b810181811067ffffffffffffffff821117156104b5576104b46104be565b5b80604052505050565b7f4e487b7100000000000000000000000000000000000000000000000000000000600052604160045260246000fd5b6000601f19601f8301169050919050565b61050781610416565b811461051257600080fd5b50565b61051e81610474565b811461052957600080fd5b5056fea2646970667358221220fd32af12f30c07acc57a268b5c444a3c054835ea236bd83b0444cf457c5e00df64736f6c63430008040033",
  "linkReferences": {},
  "deployedLinkReferences": {}
}